{
  "contractName": "game",
  "abi": [
    {
      "constant": true,
      "inputs": [
        {
          "name": "",
          "type": "bytes32"
        },
        {
          "name": "",
          "type": "bytes32"
        }
      ],
      "name": "evulationMapping",
      "outputs": [
        {
          "name": "",
          "type": "uint8"
        }
      ],
      "payable": false,
      "stateMutability": "view",
      "type": "function"
    },
    {
      "constant": true,
      "inputs": [],
      "name": "owner",
      "outputs": [
        {
          "name": "",
          "type": "address"
        }
      ],
      "payable": false,
      "stateMutability": "view",
      "type": "function"
    },
    {
      "constant": true,
      "inputs": [
        {
          "name": "",
          "type": "address"
        }
      ],
      "name": "moneys",
      "outputs": [
        {
          "name": "",
          "type": "uint256"
        }
      ],
      "payable": false,
      "stateMutability": "view",
      "type": "function"
    },
    {
      "constant": true,
      "inputs": [
        {
          "name": "",
          "type": "bytes32"
        }
      ],
      "name": "games",
      "outputs": [
        {
          "name": "wager",
          "type": "uint256"
        },
        {
          "name": "state",
          "type": "uint8"
        }
      ],
      "payable": false,
      "stateMutability": "view",
      "type": "function"
    },
    {
      "inputs": [],
      "payable": false,
      "stateMutability": "nonpayable",
      "type": "constructor"
    },
    {
      "payable": true,
      "stateMutability": "payable",
      "type": "fallback"
    },
    {
      "anonymous": false,
      "inputs": [
        {
          "indexed": false,
          "name": "sender",
          "type": "address"
        },
        {
          "indexed": false,
          "name": "amount",
          "type": "uint256"
        }
      ],
      "name": "hello",
      "type": "event"
    },
    {
      "constant": false,
      "inputs": [
        {
          "name": "bastard",
          "type": "address"
        }
      ],
      "name": "challenge",
      "outputs": [],
      "payable": true,
      "stateMutability": "payable",
      "type": "function"
    },
    {
      "constant": false,
      "inputs": [
        {
          "name": "challenger",
          "type": "address"
        }
      ],
      "name": "acceptChallenge",
      "outputs": [],
      "payable": true,
      "stateMutability": "payable",
      "type": "function"
    },
    {
      "constant": false,
      "inputs": [
        {
          "name": "opponent",
          "type": "address"
        },
        {
          "name": "secretMove",
          "type": "bytes32"
        }
      ],
      "name": "play",
      "outputs": [],
      "payable": false,
      "stateMutability": "nonpayable",
      "type": "function"
    },
    {
      "constant": false,
      "inputs": [
        {
          "name": "opponent",
          "type": "address"
        },
        {
          "name": "movePassword",
          "type": "string"
        },
        {
          "name": "move",
          "type": "string"
        }
      ],
      "name": "FinalizeMove",
      "outputs": [],
      "payable": false,
      "stateMutability": "nonpayable",
      "type": "function"
    },
    {
      "constant": true,
      "inputs": [
        {
          "name": "move",
          "type": "string"
        },
        {
          "name": "movePassword",
          "type": "string"
        }
      ],
      "name": "GetHashedMove",
      "outputs": [
        {
          "name": "",
          "type": "bytes32"
        }
      ],
      "payable": false,
      "stateMutability": "pure",
      "type": "function"
    },
    {
      "constant": true,
      "inputs": [
        {
          "name": "_a",
          "type": "address"
        },
        {
          "name": "_b",
          "type": "address"
        }
      ],
      "name": "getPairHash",
      "outputs": [
        {
          "name": "",
          "type": "bytes32"
        }
      ],
      "payable": false,
      "stateMutability": "pure",
      "type": "function"
    },
    {
      "constant": true,
      "inputs": [
        {
          "name": "_move",
          "type": "string"
        },
        {
          "name": "_movePassword",
          "type": "string"
        }
      ],
      "name": "getSecretMove",
      "outputs": [
        {
          "name": "",
          "type": "bytes32"
        }
      ],
      "payable": false,
      "stateMutability": "pure",
      "type": "function"
    }
  ],
  "bytecode": "0x608060405234801561001057600080fd5b5033600360006101000a81548173ffffffffffffffffffffffffffffffffffffffff021916908373ffffffffffffffffffffffffffffffffffffffff16021790555060006002600060405180807f50617065720000000000000000000000000000000000000000000000000000008152506005019050604051809103902060001916600019168152602001908152602001600020600060405180807f526f636b00000000000000000000000000000000000000000000000000000000815250600401905060405180910390206000191660001916815260200190815260200160002060006101000a81548160ff0219169083600281111561010d57fe5b021790555060016002600060405180807f50617065720000000000000000000000000000000000000000000000000000008152506005019050604051809103902060001916600019168152602001908152602001600020600060405180807f53636973736f7273000000000000000000000000000000000000000000000000815250600801905060405180910390206000191660001916815260200190815260200160002060006101000a81548160ff021916908360028111156101cd57fe5b0217905550600280600060405180807f50617065720000000000000000000000000000000000000000000000000000008152506005019050604051809103902060001916600019168152602001908152602001600020600060405180807f5061706572000000000000000000000000000000000000000000000000000000815250600501905060405180910390206000191660001916815260200190815260200160002060006101000a81548160ff0219169083600281111561028c57fe5b0217905550600280600060405180807f526f636b000000000000000000000000000000000000000000000000000000008152506004019050604051809103902060001916600019168152602001908152602001600020600060405180807f526f636b00000000000000000000000000000000000000000000000000000000815250600401905060405180910390206000191660001916815260200190815260200160002060006101000a81548160ff0219169083600281111561034b57fe5b021790555060006002600060405180807f526f636b000000000000000000000000000000000000000000000000000000008152506004019050604051809103902060001916600019168152602001908152602001600020600060405180807f53636973736f7273000000000000000000000000000000000000000000000000815250600801905060405180910390206000191660001916815260200190815260200160002060006101000a81548160ff0219169083600281111561040b57fe5b021790555060016002600060405180807f526f636b000000000000000000000000000000000000000000000000000000008152506004019050604051809103902060001916600019168152602001908152602001600020600060405180807f5061706572000000000000000000000000000000000000000000000000000000815250600501905060405180910390206000191660001916815260200190815260200160002060006101000a81548160ff021916908360028111156104cb57fe5b021790555060016002600060405180807f53636973736f72730000000000000000000000000000000000000000000000008152506008019050604051809103902060001916600019168152602001908152602001600020600060405180807f526f636b00000000000000000000000000000000000000000000000000000000815250600401905060405180910390206000191660001916815260200190815260200160002060006101000a81548160ff0219169083600281111561058b57fe5b0217905550600280600060405180807f53636973736f72730000000000000000000000000000000000000000000000008152506008019050604051809103902060001916600019168152602001908152602001600020600060405180807f53636973736f7273000000000000000000000000000000000000000000000000815250600801905060405180910390206000191660001916815260200190815260200160002060006101000a81548160ff0219169083600281111561064a57fe5b021790555060006002600060405180807f53636973736f72730000000000000000000000000000000000000000000000008152506008019050604051809103902060001916600019168152602001908152602001600020600060405180807f5061706572000000000000000000000000000000000000000000000000000000815250600501905060405180910390206000191660001916815260200190815260200160002060006101000a81548160ff0219169083600281111561070a57fe5b02179055506114b98061071e6000396000f3006080604052600436106100af576000357c0100000000000000000000000000000000000000000000000000000000900463ffffffff168063471840191461011c5780634a891e7f1461017d5780634db347a3146101f057806372fb9703146102265780638da5cb5b1461025c5780639987680b146102b3578063b484de0d14610304578063c1e5cc4b14610373578063d7b7961c1461043e578063e4071306146104bd578063f579f88214610514575b7ffb129803a248d4974538462200359fc800ceb4cc4e1f4d439b01db64afe4ed9b3334604051808373ffffffffffffffffffffffffffffffffffffffff1673ffffffffffffffffffffffffffffffffffffffff1681526020018281526020019250505060405180910390a1005b34801561012857600080fd5b506101596004803603810190808035600019169060200190929190803560001916906020019092919050505061056e565b6040518082600281111561016957fe5b60ff16815260200191505060405180910390f35b34801561018957600080fd5b506101ee600480360381019080803573ffffffffffffffffffffffffffffffffffffffff16906020019092919080359060200190820180359060200191909192939192939080359060200190820180359060200191909192939192939050505061059d565b005b610224600480360381019080803573ffffffffffffffffffffffffffffffffffffffff16906020019092919050505061081d565b005b61025a600480360381019080803573ffffffffffffffffffffffffffffffffffffffff1690602001909291905050506108e8565b005b34801561026857600080fd5b506102716109bf565b604051808273ffffffffffffffffffffffffffffffffffffffff1673ffffffffffffffffffffffffffffffffffffffff16815260200191505060405180910390f35b3480156102bf57600080fd5b50610302600480360381019080803573ffffffffffffffffffffffffffffffffffffffff16906020019092919080356000191690602001909291905050506109e5565b005b34801561031057600080fd5b50610355600480360381019080803590602001908201803590602001919091929391929390803590602001908201803590602001919091929391929390505050610b23565b60405180826000191660001916815260200191505060405180910390f35b34801561037f57600080fd5b50610420600480360381019080803590602001908201803590602001908080601f0160208091040260200160405190810160405280939291908181526020018383808284378201915050505050509192919290803590602001908201803590602001908080601f0160208091040260200160405190810160405280939291908181526020018383808284378201915050505050509192919290505050610bc7565b60405180826000191660001916815260200191505060405180910390f35b34801561044a57600080fd5b5061049f600480360381019080803573ffffffffffffffffffffffffffffffffffffffff169060200190929190803573ffffffffffffffffffffffffffffffffffffffff169060200190929190505050610cf5565b60405180826000191660001916815260200191505060405180910390f35b3480156104c957600080fd5b506104fe600480360381019080803573ffffffffffffffffffffffffffffffffffffffff169060200190929190505050610f38565b6040518082815260200191505060405180910390f35b34801561052057600080fd5b506105436004803603810190808035600019169060200190929190505050610f50565b6040518083815260200182600481111561055957fe5b60ff1681526020019250505060405180910390f35b60026020528160005260406000206020528060005260406000206000915091509054906101000a900460ff1681565b6000806105aa3388610cf5565b915060006105b9836000610f81565b50602060ff161180156105dc575060006105d4836001610f81565b50602060ff16115b15156105e757600080fd5b600360048111156105f457fe5b600080846000191660001916815260200190815260200160002060010160009054906101000a900460ff16600481111561062a57fe5b1480610675575060048081111561063d57fe5b600080846000191660001916815260200190815260200160002060010160009054906101000a900460ff16600481111561067357fe5b145b151561068057600080fd5b8383878760405160200180858580828437820191505083838082843782019150509450505050506040516020818303038152906040526040518082805190602001908083835b6020831015156106eb57805182526020820191506020810190506020830392506106c6565b6001836020036101000a038019825116818451168082178552505050505050905001915050604051809103902090503373ffffffffffffffffffffffffffffffffffffffff168773ffffffffffffffffffffffffffffffffffffffff1611156107b357610759826000610f81565b60001916816000191614151561076e57600080fd5b6107ae82600086868080601f0160208091040260200160405190810160405280939291908181526020018383808284378201915050505050508a33610fc5565b610814565b6107be826001610f81565b6000191681600019161415156107d357600080fd5b61081382600186868080601f016020809104026020016040519081016040528093929190818152602001838380828437820191505050505050338b610fc5565b5b50505050505050565b60006108293383610cf5565b90506001600481111561083857fe5b600080836000191660001916815260200190815260200160002060010160009054906101000a900460ff16600481111561086e57fe5b14151561087a57600080fd5b600080826000191660001916815260200190815260200160002060000154341415156108a557600080fd5b6002600080836000191660001916815260200190815260200160002060010160006101000a81548160ff021916908360048111156108df57fe5b02179055505050565b60006108f43383610cf5565b90506000600481111561090357fe5b600080836000191660001916815260200190815260200160002060010160009054906101000a900460ff16600481111561093957fe5b14151561094557600080fd5b662386f26fc100003411151561095a57600080fd5b346000808360001916600019168152602001908152602001600020600001819055506001600080836000191660001916815260200190815260200160002060010160006101000a81548160ff021916908360048111156109b657fe5b02179055505050565b600360009054906101000a900473ffffffffffffffffffffffffffffffffffffffff1681565b60006109f13384610cf5565b905060026004811115610a0057fe5b600080836000191660001916815260200190815260200160002060010160009054906101000a900460ff166004811115610a3657fe5b1480610a82575060036004811115610a4a57fe5b600080836000191660001916815260200190815260200160002060010160009054906101000a900460ff166004811115610a8057fe5b145b1515610a8d57600080fd5b6003600080836000191660001916815260200190815260200160002060010160006101000a81548160ff02191690836004811115610ac757fe5b02179055503373ffffffffffffffffffffffffffffffffffffffff168373ffffffffffffffffffffffffffffffffffffffff161115610b1157610b0c8160008461117e565b610b1e565b610b1d8160018461117e565b5b505050565b60008484848460405160200180858580828437820191505083838082843782019150509450505050506040516020818303038152906040526040518082805190602001908083835b602083101515610b905780518252602082019150602081019050602083039250610b6b565b6001836020036101000a03801982511681845116808217855250505050505090500191505060405180910390209050949350505050565b600082826040516020018083805190602001908083835b602083101515610c035780518252602082019150602081019050602083039250610bde565b6001836020036101000a03801982511681845116808217855250505050505090500182805190602001908083835b602083101515610c565780518252602082019150602081019050602083039250610c31565b6001836020036101000a038019825116818451168082178552505050505050905001925050506040516020818303038152906040526040518082805190602001908083835b602083101515610cc05780518252602082019150602081019050602083039250610c9b565b6001836020036101000a0380198251168184511680821785525050505050509050019150506040518091039020905092915050565b60008173ffffffffffffffffffffffffffffffffffffffff168373ffffffffffffffffffffffffffffffffffffffff1610610e2f578183604051602001808373ffffffffffffffffffffffffffffffffffffffff1673ffffffffffffffffffffffffffffffffffffffff166c010000000000000000000000000281526014018273ffffffffffffffffffffffffffffffffffffffff1673ffffffffffffffffffffffffffffffffffffffff166c01000000000000000000000000028152601401925050506040516020818303038152906040526040518082805190602001908083835b602083101515610dfd5780518252602082019150602081019050602083039250610dd8565b6001836020036101000a0380198251168184511680821785525050505050509050019150506040518091039020610f30565b8282604051602001808373ffffffffffffffffffffffffffffffffffffffff1673ffffffffffffffffffffffffffffffffffffffff166c010000000000000000000000000281526014018273ffffffffffffffffffffffffffffffffffffffff1673ffffffffffffffffffffffffffffffffffffffff166c01000000000000000000000000028152601401925050506040516020818303038152906040526040518082805190602001908083835b602083101515610f025780518252602082019150602081019050602083039250610edd565b6001836020036101000a03801982511681845116808217855250505050505090500191505060405180910390205b905092915050565b60016020528060005260406000206000915090505481565b60006020528060005260406000206000915090508060000154908060010160009054906101000a900460ff16905082565b600080600084600019166000191681526020019081526020016000206002016000836001811115610fae57fe5b815260200190815260200160002054905092915050565b61109e8585856040516020018082805190602001908083835b6020831015156110035780518252602082019150602081019050602083039250610fde565b6001836020036101000a0380198251168184511680821785525050505050509050019150506040516020818303038152906040526040518082805190602001908083835b60208310151561106c5780518252602082019150602081019050602083039250611047565b6001836020036101000a038019825116818451168082178552505050505050905001915050604051809103902061117e565b600360048111156110ab57fe5b600080876000191660001916815260200190815260200160002060010160009054906101000a900460ff1660048111156110e157fe5b141561112b576004600080876000191660001916815260200190815260200160002060010160006101000a81548160ff0219169083600481111561112157fe5b0217905550611177565b6111368583836111c5565b506000806000876000191660001916815260200190815260200160002060010160006101000a81548160ff0219169083600481111561117157fe5b02179055505b5050505050565b80600080856000191660001916815260200190815260200160002060020160008460018111156111aa57fe5b81526020019081526020016000208160001916905550505050565b60008060028111156111d357fe5b600260006111e2876000610f81565b600019166000191681526020019081526020016000206000611205876001610f81565b6000191660001916815260200190815260200160002060009054906101000a900460ff16600281111561123457fe5b14156112ac57600260008086600019166000191681526020019081526020016000206000015402600160008573ffffffffffffffffffffffffffffffffffffffff1673ffffffffffffffffffffffffffffffffffffffff16815260200190815260200160002060008282540192505081905550611486565b600160028111156112b957fe5b600260006112c8876000610f81565b6000191660001916815260200190815260200160002060006112eb876001610f81565b6000191660001916815260200190815260200160002060009054906101000a900460ff16600281111561131a57fe5b141561139257600260008086600019166000191681526020019081526020016000206000015402600160008473ffffffffffffffffffffffffffffffffffffffff1673ffffffffffffffffffffffffffffffffffffffff16815260200190815260200160002060008282540192505081905550611485565b60646009600080876000191660001916815260200190815260200160002060000154028115156113be57fe5b04600160008573ffffffffffffffffffffffffffffffffffffffff1673ffffffffffffffffffffffffffffffffffffffff16815260200190815260200160002060008282540192505081905550606460096000808760001916600019168152602001908152602001600020600001540281151561143757fe5b04600160008473ffffffffffffffffffffffffffffffffffffffff1673ffffffffffffffffffffffffffffffffffffffff168152602001908152602001600020600082825401925050819055505b5b93925050505600a165627a7a723058204f3a550fabfca65b0c09ba81d5dd0e8fb26b021622bbdb793698b57db8d8a8b20029",
  "source": "pragma solidity 0.4.24;\n\ncontract game{\n    \n    struct Game {\n        uint wager;\n        GameState state;\n        mapping(uint => bytes32) playerMove;\n    }\n    \n    enum GameState { ready, challenged, accepted, playing, evaluating }\n    enum EvalState {win, lose, draw}\n    enum Players {player1, player2}\n    \n    mapping(bytes32 => Game) public games;\n    mapping(address => uint) public moneys;\n    mapping(bytes32 => mapping(bytes32 => EvalState)) public evulationMapping;\n    address public owner;\n    \n    constructor()\n    public\n    {\n        owner = msg.sender;\n        \n        evulationMapping[keccak256(\"Paper\")][keccak256(\"Rock\")] = EvalState.win;\n        evulationMapping[keccak256(\"Paper\")][keccak256(\"Scissors\")] = EvalState.lose;\n        evulationMapping[keccak256(\"Paper\")][keccak256(\"Paper\")] = EvalState.draw;\n        evulationMapping[keccak256(\"Rock\")][keccak256(\"Rock\")] = EvalState.draw;\n        evulationMapping[keccak256(\"Rock\")][keccak256(\"Scissors\")] = EvalState.win;\n        evulationMapping[keccak256(\"Rock\")][keccak256(\"Paper\")] = EvalState.lose;\n        evulationMapping[keccak256(\"Scissors\")][keccak256(\"Rock\")] = EvalState.lose;\n        evulationMapping[keccak256(\"Scissors\")][keccak256(\"Scissors\")] = EvalState.draw;\n        evulationMapping[keccak256(\"Scissors\")][keccak256(\"Paper\")] = EvalState.win;\n    }\n    \n    function challenge(address bastard)\n    external\n    payable\n    {\n        bytes32 gameHash = getPairHash(msg.sender, bastard);\n        \n        require(games[gameHash].state == GameState.ready);\n        require(msg.value > 10 finney);\n        \n        games[gameHash].wager = msg.value;\n        games[gameHash].state = GameState.challenged;\n    }\n    \n    function acceptChallenge(address challenger)\n    external\n    payable\n    {\n        bytes32 gameHash = getPairHash(msg.sender, challenger);\n        \n        require(games[gameHash].state == GameState.challenged);\n        require(msg.value == games[gameHash].wager);\n        \n        games[gameHash].state = GameState.accepted;\n    }\n    \n    function play(address opponent, bytes32 secretMove)\n    external\n    {\n        bytes32 gameHash = getPairHash(msg.sender, opponent);\n        \n        require(games[gameHash].state == GameState.accepted || games[gameHash].state == GameState.playing);\n        games[gameHash].state = GameState.playing;\n        \n        if (opponent > msg.sender)\n            SetPlayerMove(gameHash, Players.player1, secretMove);\n        else\n            SetPlayerMove(gameHash, Players.player2, secretMove);\n    }\n    \n    function FinalizeMove(address opponent, string movePassword, string move)\n    external\n    {\n        bytes32 gameHash = getPairHash(msg.sender, opponent);\n        \n        require(\n            GetPlayerMove(gameHash, Players.player1).length > 0 && \n            GetPlayerMove(gameHash, Players.player2).length > 0);// both players have made their move\n        require(\n            games[gameHash].state == GameState.playing || \n            games[gameHash].state == GameState.evaluating);\n        \n        bytes32 verifiedMove = keccak256(abi.encodePacked(move, movePassword));\n        \n        if (opponent > msg.sender) // Player1\n        {\n            require(verifiedMove == GetPlayerMove(gameHash, Players.player1));\n            Evaluate(gameHash, Players.player1, move, opponent, msg.sender);\n            \n        }\n        else // Player2\n        {\n            require(verifiedMove == GetPlayerMove(gameHash, Players.player2));\n            Evaluate(gameHash, Players.player2, move, msg.sender, opponent);\n        }\n    }\n    \n    function Evaluate(bytes32 gameHash, Players player, string move, address p1Address, address p2Address)\n    internal\n    {\n            SetPlayerMove(gameHash, player, keccak256(abi.encodePacked(move)));\n                \n            if(games[gameHash].state == GameState.playing) // 1st to evaulate\n            {\n                games[gameHash].state = GameState.evaluating;\n            }\n            else // 2nd to evaluate\n            {\n                Payout(gameHash, p1Address, p2Address);\n                games[gameHash].state = GameState.ready;\n            }\n    }\n    \n    function Payout(bytes32 gameHash, address p1Address, address p2Address)\n    internal    \n    returns (address)\n    {\n        if (evulationMapping[GetPlayerMove(gameHash, Players.player1)][GetPlayerMove(gameHash, Players.player2)] == EvalState.win)\n        {\n            moneys[p1Address] += games[gameHash].wager * 2;\n        }\n        else if (evulationMapping[GetPlayerMove(gameHash, Players.player1)][GetPlayerMove(gameHash, Players.player2)] == EvalState.lose)\n        {\n            moneys[p2Address] += games[gameHash].wager * 2;\n        }\n        else\n        {\n            moneys[p1Address] += (games[gameHash].wager * 9)/100;\n            moneys[p2Address] += (games[gameHash].wager * 9)/100;\n        }\n            \n    }\n    \n    function GetPlayerMove(bytes32 gameHash, Players player)\n    internal\n    view\n    returns (bytes32)\n    {\n        return games[gameHash].playerMove[uint(player)];\n    }\n    \n    function SetPlayerMove(bytes32 gameHash, Players player, bytes32 move)\n    internal\n    {\n        games[gameHash].playerMove[uint(player)] = move;\n    }\n    \n    function GetHashedMove(string move, string movePassword)\n    external\n    pure\n    returns (bytes32)\n    {\n        return keccak256(abi.encodePacked(move, movePassword));\n    }\n    \n    function getPairHash(address _a, address _b)\n    public\n    pure\n    returns (bytes32){\n        return (_a < _b) ? keccak256(abi.encodePacked(_a, _b)) :  keccak256(abi.encodePacked(_b, _a));\n    }\n\n    function getSecretMove(string _move, string _movePassword)\n    public\n    pure\n    returns (bytes32)\n    {\n        return keccak256(abi.encodePacked(_move, _movePassword));\n    }\n    \n    function ()\n    external\n    payable\n    {\n        emit hello(msg.sender, msg.value);\n    }\n    \n    event hello(address sender, uint amount);\n    \n}",
  "sourcePath": "/home/kris/Documents/rockpaperscissor/contracts/game.sol",
  "compiler": {
    "name": "solc",
    "version": "0.4.24+commit.e67f0147.Emscripten.clang"
  },
  "schemaVersion": "2.0.1",
  "updatedAt": "2018-09-02T17:50:27.971Z"
}