{
  "contractName": "game",
  "abi": [
    {
      "constant": true,
      "inputs": [
        {
          "name": "",
          "type": "bytes32"
        },
        {
          "name": "",
          "type": "bytes32"
        }
      ],
      "name": "evulationMapping",
      "outputs": [
        {
          "name": "",
          "type": "uint8"
        }
      ],
      "payable": false,
      "stateMutability": "view",
      "type": "function"
    },
    {
      "constant": true,
      "inputs": [
        {
          "name": "",
          "type": "address"
        }
      ],
      "name": "moneys",
      "outputs": [
        {
          "name": "",
          "type": "uint256"
        }
      ],
      "payable": false,
      "stateMutability": "view",
      "type": "function"
    },
    {
      "constant": true,
      "inputs": [
        {
          "name": "",
          "type": "bytes32"
        }
      ],
      "name": "games",
      "outputs": [
        {
          "name": "wager",
          "type": "uint256"
        },
        {
          "name": "state",
          "type": "uint8"
        }
      ],
      "payable": false,
      "stateMutability": "view",
      "type": "function"
    },
    {
      "inputs": [],
      "payable": false,
      "stateMutability": "nonpayable",
      "type": "constructor"
    },
    {
      "payable": true,
      "stateMutability": "payable",
      "type": "fallback"
    },
    {
      "anonymous": false,
      "inputs": [
        {
          "indexed": false,
          "name": "sender",
          "type": "address"
        },
        {
          "indexed": false,
          "name": "amount",
          "type": "uint256"
        }
      ],
      "name": "hello",
      "type": "event"
    },
    {
      "constant": false,
      "inputs": [
        {
          "name": "bastard",
          "type": "address"
        }
      ],
      "name": "challenge",
      "outputs": [],
      "payable": true,
      "stateMutability": "payable",
      "type": "function"
    },
    {
      "constant": false,
      "inputs": [
        {
          "name": "challenger",
          "type": "address"
        }
      ],
      "name": "acceptChallenge",
      "outputs": [],
      "payable": true,
      "stateMutability": "payable",
      "type": "function"
    },
    {
      "constant": false,
      "inputs": [
        {
          "name": "opponent",
          "type": "address"
        },
        {
          "name": "secretMove",
          "type": "bytes32"
        }
      ],
      "name": "play",
      "outputs": [],
      "payable": false,
      "stateMutability": "nonpayable",
      "type": "function"
    },
    {
      "constant": false,
      "inputs": [
        {
          "name": "opponent",
          "type": "address"
        },
        {
          "name": "movePassword",
          "type": "string"
        },
        {
          "name": "move",
          "type": "string"
        }
      ],
      "name": "FinalizeMove",
      "outputs": [],
      "payable": false,
      "stateMutability": "nonpayable",
      "type": "function"
    },
    {
      "constant": true,
      "inputs": [
        {
          "name": "move",
          "type": "string"
        },
        {
          "name": "movePassword",
          "type": "string"
        }
      ],
      "name": "GetHashedMove",
      "outputs": [
        {
          "name": "",
          "type": "bytes32"
        }
      ],
      "payable": false,
      "stateMutability": "pure",
      "type": "function"
    }
  ],
  "bytecode": "0x608060405234801561001057600080fd5b5033600360006101000a81548173ffffffffffffffffffffffffffffffffffffffff021916908373ffffffffffffffffffffffffffffffffffffffff16021790555060006002600060405180807f50617065720000000000000000000000000000000000000000000000000000008152506005019050604051809103902060001916600019168152602001908152602001600020600060405180807f526f636b00000000000000000000000000000000000000000000000000000000815250600401905060405180910390206000191660001916815260200190815260200160002060006101000a81548160ff0219169083600281111561010d57fe5b021790555060016002600060405180807f50617065720000000000000000000000000000000000000000000000000000008152506005019050604051809103902060001916600019168152602001908152602001600020600060405180807f53636973736f7273000000000000000000000000000000000000000000000000815250600801905060405180910390206000191660001916815260200190815260200160002060006101000a81548160ff021916908360028111156101cd57fe5b0217905550600280600060405180807f50617065720000000000000000000000000000000000000000000000000000008152506005019050604051809103902060001916600019168152602001908152602001600020600060405180807f5061706572000000000000000000000000000000000000000000000000000000815250600501905060405180910390206000191660001916815260200190815260200160002060006101000a81548160ff0219169083600281111561028c57fe5b0217905550600280600060405180807f526f636b000000000000000000000000000000000000000000000000000000008152506004019050604051809103902060001916600019168152602001908152602001600020600060405180807f526f636b00000000000000000000000000000000000000000000000000000000815250600401905060405180910390206000191660001916815260200190815260200160002060006101000a81548160ff0219169083600281111561034b57fe5b021790555060006002600060405180807f526f636b000000000000000000000000000000000000000000000000000000008152506004019050604051809103902060001916600019168152602001908152602001600020600060405180807f53636973736f7273000000000000000000000000000000000000000000000000815250600801905060405180910390206000191660001916815260200190815260200160002060006101000a81548160ff0219169083600281111561040b57fe5b021790555060016002600060405180807f526f636b000000000000000000000000000000000000000000000000000000008152506004019050604051809103902060001916600019168152602001908152602001600020600060405180807f5061706572000000000000000000000000000000000000000000000000000000815250600501905060405180910390206000191660001916815260200190815260200160002060006101000a81548160ff021916908360028111156104cb57fe5b021790555060016002600060405180807f53636973736f72730000000000000000000000000000000000000000000000008152506008019050604051809103902060001916600019168152602001908152602001600020600060405180807f526f636b00000000000000000000000000000000000000000000000000000000815250600401905060405180910390206000191660001916815260200190815260200160002060006101000a81548160ff0219169083600281111561058b57fe5b0217905550600280600060405180807f53636973736f72730000000000000000000000000000000000000000000000008152506008019050604051809103902060001916600019168152602001908152602001600020600060405180807f53636973736f7273000000000000000000000000000000000000000000000000815250600801905060405180910390206000191660001916815260200190815260200160002060006101000a81548160ff0219169083600281111561064a57fe5b021790555060006002600060405180807f53636973736f72730000000000000000000000000000000000000000000000008152506008019050604051809103902060001916600019168152602001908152602001600020600060405180807f5061706572000000000000000000000000000000000000000000000000000000815250600501905060405180910390206000191660001916815260200190815260200160002060006101000a81548160ff0219169083600281111561070a57fe5b021790555061119e8061071e6000396000f30060806040526004361061008e576000357c0100000000000000000000000000000000000000000000000000000000900463ffffffff16806347184019146100fb5780634a891e7f1461015c5780634db347a3146101cf57806372fb9703146102055780639987680b1461023b578063b484de0d1461028c578063e4071306146102fb578063f579f88214610352575b7ffb129803a248d4974538462200359fc800ceb4cc4e1f4d439b01db64afe4ed9b3334604051808373ffffffffffffffffffffffffffffffffffffffff1673ffffffffffffffffffffffffffffffffffffffff1681526020018281526020019250505060405180910390a1005b34801561010757600080fd5b50610138600480360381019080803560001916906020019092919080356000191690602001909291905050506103ac565b6040518082600281111561014857fe5b60ff16815260200191505060405180910390f35b34801561016857600080fd5b506101cd600480360381019080803573ffffffffffffffffffffffffffffffffffffffff1690602001909291908035906020019082018035906020019190919293919293908035906020019082018035906020019190919293919293905050506103db565b005b610203600480360381019080803573ffffffffffffffffffffffffffffffffffffffff16906020019092919050505061065b565b005b610239600480360381019080803573ffffffffffffffffffffffffffffffffffffffff169060200190929190505050610726565b005b34801561024757600080fd5b5061028a600480360381019080803573ffffffffffffffffffffffffffffffffffffffff16906020019092919080356000191690602001909291905050506107fd565b005b34801561029857600080fd5b506102dd60048036038101908080359060200190820180359060200191909192939192939080359060200190820180359060200191909192939192939050505061093b565b60405180826000191660001916815260200191505060405180910390f35b34801561030757600080fd5b5061033c600480360381019080803573ffffffffffffffffffffffffffffffffffffffff1690602001909291905050506109df565b6040518082815260200191505060405180910390f35b34801561035e57600080fd5b5061038160048036038101908080356000191690602001909291905050506109f7565b6040518083815260200182600481111561039757fe5b60ff1681526020019250505060405180910390f35b60026020528160005260406000206020528060005260406000206000915091509054906101000a900460ff1681565b6000806103e83388610a28565b915060006103f7836000610c6b565b50602060ff1611801561041a57506000610412836001610c6b565b50602060ff16115b151561042557600080fd5b6003600481111561043257fe5b600080846000191660001916815260200190815260200160002060010160009054906101000a900460ff16600481111561046857fe5b14806104b3575060048081111561047b57fe5b600080846000191660001916815260200190815260200160002060010160009054906101000a900460ff1660048111156104b157fe5b145b15156104be57600080fd5b8383878760405160200180858580828437820191505083838082843782019150509450505050506040516020818303038152906040526040518082805190602001908083835b6020831015156105295780518252602082019150602081019050602083039250610504565b6001836020036101000a038019825116818451168082178552505050505050905001915050604051809103902090503373ffffffffffffffffffffffffffffffffffffffff168773ffffffffffffffffffffffffffffffffffffffff1611156105f157610597826000610c6b565b6000191681600019161415156105ac57600080fd5b6105ec82600086868080601f0160208091040260200160405190810160405280939291908181526020018383808284378201915050505050508a33610caf565b610652565b6105fc826001610c6b565b60001916816000191614151561061157600080fd5b61065182600186868080601f016020809104026020016040519081016040528093929190818152602001838380828437820191505050505050338b610caf565b5b50505050505050565b60006106673383610a28565b90506001600481111561067657fe5b600080836000191660001916815260200190815260200160002060010160009054906101000a900460ff1660048111156106ac57fe5b1415156106b857600080fd5b600080826000191660001916815260200190815260200160002060000154341415156106e357600080fd5b6002600080836000191660001916815260200190815260200160002060010160006101000a81548160ff0219169083600481111561071d57fe5b02179055505050565b60006107323383610a28565b90506000600481111561074157fe5b600080836000191660001916815260200190815260200160002060010160009054906101000a900460ff16600481111561077757fe5b14151561078357600080fd5b662386f26fc100003411151561079857600080fd5b346000808360001916600019168152602001908152602001600020600001819055506001600080836000191660001916815260200190815260200160002060010160006101000a81548160ff021916908360048111156107f457fe5b02179055505050565b60006108093384610a28565b90506002600481111561081857fe5b600080836000191660001916815260200190815260200160002060010160009054906101000a900460ff16600481111561084e57fe5b148061089a57506003600481111561086257fe5b600080836000191660001916815260200190815260200160002060010160009054906101000a900460ff16600481111561089857fe5b145b15156108a557600080fd5b6003600080836000191660001916815260200190815260200160002060010160006101000a81548160ff021916908360048111156108df57fe5b02179055503373ffffffffffffffffffffffffffffffffffffffff168373ffffffffffffffffffffffffffffffffffffffff1611156109295761092481600084610e68565b610936565b61093581600184610e68565b5b505050565b60008484848460405160200180858580828437820191505083838082843782019150509450505050506040516020818303038152906040526040518082805190602001908083835b6020831015156109a85780518252602082019150602081019050602083039250610983565b6001836020036101000a03801982511681845116808217855250505050505090500191505060405180910390209050949350505050565b60016020528060005260406000206000915090505481565b60006020528060005260406000206000915090508060000154908060010160009054906101000a900460ff16905082565b60008173ffffffffffffffffffffffffffffffffffffffff168373ffffffffffffffffffffffffffffffffffffffff1610610b62578183604051602001808373ffffffffffffffffffffffffffffffffffffffff1673ffffffffffffffffffffffffffffffffffffffff166c010000000000000000000000000281526014018273ffffffffffffffffffffffffffffffffffffffff1673ffffffffffffffffffffffffffffffffffffffff166c01000000000000000000000000028152601401925050506040516020818303038152906040526040518082805190602001908083835b602083101515610b305780518252602082019150602081019050602083039250610b0b565b6001836020036101000a0380198251168184511680821785525050505050509050019150506040518091039020610c63565b8282604051602001808373ffffffffffffffffffffffffffffffffffffffff1673ffffffffffffffffffffffffffffffffffffffff166c010000000000000000000000000281526014018273ffffffffffffffffffffffffffffffffffffffff1673ffffffffffffffffffffffffffffffffffffffff166c01000000000000000000000000028152601401925050506040516020818303038152906040526040518082805190602001908083835b602083101515610c355780518252602082019150602081019050602083039250610c10565b6001836020036101000a03801982511681845116808217855250505050505090500191505060405180910390205b905092915050565b600080600084600019166000191681526020019081526020016000206002016000836001811115610c9857fe5b815260200190815260200160002054905092915050565b610d888585856040516020018082805190602001908083835b602083101515610ced5780518252602082019150602081019050602083039250610cc8565b6001836020036101000a0380198251168184511680821785525050505050509050019150506040516020818303038152906040526040518082805190602001908083835b602083101515610d565780518252602082019150602081019050602083039250610d31565b6001836020036101000a0380198251168184511680821785525050505050509050019150506040518091039020610e68565b60036004811115610d9557fe5b600080876000191660001916815260200190815260200160002060010160009054906101000a900460ff166004811115610dcb57fe5b1415610e15576004600080876000191660001916815260200190815260200160002060010160006101000a81548160ff02191690836004811115610e0b57fe5b0217905550610e61565b610e20858383610eaf565b506000806000876000191660001916815260200190815260200160002060010160006101000a81548160ff02191690836004811115610e5b57fe5b02179055505b5050505050565b8060008085600019166000191681526020019081526020016000206002016000846001811115610e9457fe5b81526020019081526020016000208160001916905550505050565b6000806002811115610ebd57fe5b60026000610ecc876000610c6b565b600019166000191681526020019081526020016000206000610eef876001610c6b565b6000191660001916815260200190815260200160002060009054906101000a900460ff166002811115610f1e57fe5b1415610f9657600260008086600019166000191681526020019081526020016000206000015402600160008573ffffffffffffffffffffffffffffffffffffffff1673ffffffffffffffffffffffffffffffffffffffff16815260200190815260200160002060008282540192505081905550611079565b60016002811115610fa357fe5b60026000610fb2876000610c6b565b600019166000191681526020019081526020016000206000610fd5876001610c6b565b6000191660001916815260200190815260200160002060009054906101000a900460ff16600281111561100457fe5b141561107857600260008086600019166000191681526020019081526020016000206000015402600160008473ffffffffffffffffffffffffffffffffffffffff1673ffffffffffffffffffffffffffffffffffffffff168152602001908152602001600020600082825401925050819055505b5b60646009600080876000191660001916815260200190815260200160002060000154028115156110a557fe5b04600160008573ffffffffffffffffffffffffffffffffffffffff1673ffffffffffffffffffffffffffffffffffffffff16815260200190815260200160002060008282540192505081905550606460096000808760001916600019168152602001908152602001600020600001540281151561111e57fe5b04600160008473ffffffffffffffffffffffffffffffffffffffff1673ffffffffffffffffffffffffffffffffffffffff1681526020019081526020016000206000828254019250508190555093925050505600a165627a7a72305820ee6143997ea098c0565cec6af7dbc46932342a359fd5f26e0fe3d2979426a8a80029",
  "source": "pragma solidity 0.4.24;\n\ncontract game{\n    \n    struct Game {\n        uint wager;\n        GameState state;\n        mapping(uint => bytes32) playerMove;\n    }\n    \n    enum GameState { ready, challenged, accepted, playing, evaluating }\n    enum EvalState {win, lose, draw}\n    enum Players {player1, player2}\n    \n    mapping(bytes32 => Game) public games;\n    mapping(address => uint) public moneys;\n    mapping(bytes32 => mapping(bytes32 => EvalState)) public evulationMapping;\n    address owner;\n    \n    constructor()\n    {\n        owner = msg.sender;\n        \n        evulationMapping[keccak256(\"Paper\")][keccak256(\"Rock\")] = EvalState.win;\n        evulationMapping[keccak256(\"Paper\")][keccak256(\"Scissors\")] = EvalState.lose;\n        evulationMapping[keccak256(\"Paper\")][keccak256(\"Paper\")] = EvalState.draw;\n        evulationMapping[keccak256(\"Rock\")][keccak256(\"Rock\")] = EvalState.draw;\n        evulationMapping[keccak256(\"Rock\")][keccak256(\"Scissors\")] = EvalState.win;\n        evulationMapping[keccak256(\"Rock\")][keccak256(\"Paper\")] = EvalState.lose;\n        evulationMapping[keccak256(\"Scissors\")][keccak256(\"Rock\")] = EvalState.lose;\n        evulationMapping[keccak256(\"Scissors\")][keccak256(\"Scissors\")] = EvalState.draw;\n        evulationMapping[keccak256(\"Scissors\")][keccak256(\"Paper\")] = EvalState.win;\n    }\n    \n    function challenge(address bastard)\n    external\n    payable\n    {\n        bytes32 gameHash = getPairHash(msg.sender, bastard);\n        \n        require(games[gameHash].state == GameState.ready);\n        require(msg.value > 10 finney);\n        \n        games[gameHash].wager = msg.value;\n        games[gameHash].state = GameState.challenged;\n    }\n    \n    function acceptChallenge(address challenger)\n    external\n    payable\n    {\n        bytes32 gameHash = getPairHash(msg.sender, challenger);\n        \n        require(games[gameHash].state == GameState.challenged);\n        require(msg.value == games[gameHash].wager);\n        \n        games[gameHash].state = GameState.accepted;\n    }\n    \n    function play(address opponent, bytes32 secretMove)\n    external\n    {\n        bytes32 gameHash = getPairHash(msg.sender, opponent);\n        \n        require(games[gameHash].state == GameState.accepted || games[gameHash].state == GameState.playing);\n        games[gameHash].state = GameState.playing;\n        \n        if (opponent > msg.sender)\n            SetPlayerMove(gameHash, Players.player1, secretMove);\n        else\n            SetPlayerMove(gameHash, Players.player2, secretMove);\n    }\n    \n    function FinalizeMove(address opponent, string movePassword, string move)\n    external\n    {\n        bytes32 gameHash = getPairHash(msg.sender, opponent);\n        \n        require(\n            GetPlayerMove(gameHash, Players.player1).length > 0 && \n            GetPlayerMove(gameHash, Players.player2).length > 0);// both players have made their move\n        require(\n            games[gameHash].state == GameState.playing || \n            games[gameHash].state == GameState.evaluating);\n        \n        bytes32 verifiedMove = keccak256(abi.encodePacked(move, movePassword));\n        \n        if (opponent > msg.sender) // Player1\n        {\n            require(verifiedMove == GetPlayerMove(gameHash, Players.player1));\n            Evaluate(gameHash, Players.player1, move, opponent, msg.sender);\n            \n        }\n        else // Player2\n        {\n            require(verifiedMove == GetPlayerMove(gameHash, Players.player2));\n            Evaluate(gameHash, Players.player2, move, msg.sender, opponent);\n        }\n    }\n    \n    function Evaluate(bytes32 gameHash, Players player, string move, address p1Address, address p2Address)\n    internal\n    {\n            SetPlayerMove(gameHash, player, keccak256(abi.encodePacked(move)));\n                \n            if(games[gameHash].state == GameState.playing) // 1st to evaulate\n            {\n                games[gameHash].state = GameState.evaluating;\n            }\n            else // 2nd to evaluate\n            {\n                Payout(gameHash, p1Address, p2Address);\n                games[gameHash].state = GameState.ready;\n            }\n    }\n    \n    function Payout(bytes32 gameHash, address p1Address, address p2Address)\n    internal    \n    returns (address)\n    {\n        if (evulationMapping\n        [GetPlayerMove(gameHash, Players.player1)]\n        [GetPlayerMove(gameHash, Players.player2)] == EvalState.win)\n            moneys[p1Address] += games[gameHash].wager * 2;\n        else if (evulationMapping\n        [GetPlayerMove(gameHash, Players.player1)]\n        [GetPlayerMove(gameHash, Players.player2)] == EvalState.lose)\n            moneys[p2Address] += games[gameHash].wager * 2;\n\n        moneys[p1Address] += (games[gameHash].wager * 9)/100;\n        moneys[p2Address] += (games[gameHash].wager * 9)/100;\n    }\n    \n    function GetPlayerMove(bytes32 gameHash, Players player)\n    internal\n    view\n    returns (bytes32)\n    {\n        return games[gameHash].playerMove[uint(player)];\n    }\n    \n    function SetPlayerMove(bytes32 gameHash, Players player, bytes32 move)\n    internal\n    {\n        games[gameHash].playerMove[uint(player)] = move;\n    }\n    \n    function GetHashedMove(string move, string movePassword)\n    external\n    pure\n    returns (bytes32)\n    {\n        return keccak256(abi.encodePacked(move, movePassword));\n    }\n    \n    function getPairHash(address _a, address _b)\n    internal\n    pure\n    returns (bytes32){\n        return (_a < _b) ? keccak256(abi.encodePacked(_a, _b)) :  keccak256(abi.encodePacked(_b, _a));\n    }\n    \n    function ()\n    external\n    payable\n    {\n        emit hello(msg.sender, msg.value);\n    }\n    \n    event hello(address sender, uint amount);\n    \n}",
  "sourcePath": "/home/kris/Documents/rockpaperscissor/contracts/game.sol",
  "compiler": {
    "name": "solc",
    "version": "0.4.24+commit.e67f0147.Emscripten.clang"
  },
  "schemaVersion": "2.0.1",
  "updatedAt": "2018-09-02T16:56:54.916Z"
}